:100000000C9434000C9449000C9449000C94490061
:100010000C9449000C9449000C9449000C9449003C
:100020000C9449000C9449000C9449000C9449002C
:100030000C9449000C9449000C9449000C9449001C
:100040000C9449000C9449000C9449000C9449000C
:100050000C9449000C9449000C9449000C944900FC
:100060000C9449000C94490011241FBECFEFD8E036
:10007000DEBFCDBF11E0A0E0B1E0EEE1F1E002C0F3
:1000800005900D92AA30B107D9F70E944B000C944D
:100090008D000C9400008091C100877E8093C10088
:1000A00087B1836087B98AB18FEF8AB9C0E0D0E0A9
:1000B00060E070E0A0E0B1E051E042E084E690E072
:1000C000FB01E050FF4F30812C9158B93BB9EFE173
:1000D000FEE43197F1F700C0000048B92BB9EFE119
:1000E000FEE43197F1F700C00000019771F76F5FF0
:1000F0007F4F6A30710511F72196C630D10531F076
:1001000060E070E0DE01A050BF4FD8CFC0E0D0E08B
:0E01100060E070E0A0E0B1E0D1CFF894FFCF46
:0A011E00C0F9A4B0999282F8809015
:00000001FF
