S00D00007461736B312E7372656333
S11300000C9434000C9446000C9446000C94460066
S11300100C9446000C9446000C9446000C94460044
S11300200C9446000C9446000C9446000C94460034
S11300300C9446000C9446000C9446000C94460024
S11300400C9446000C9446000C9446000C94460014
S11300500C9446000C9446000C9446000C94460004
S11300600C9446000C94460011241FBECFEFD8E038
S1130070DEBFCDBF21E0A0E0B1E001C01D92A83CED
S1130080B207E1F70E9448000C947D000C94000034
S1130090E0E0F1E081E090E08193919321E0E83C9D
S11300A0F207D1F72C9A239A20E030E080E090E028
S11300B007C02B98EFE3FCE93197F1F700C000008B
S11300C043B1FC01E050FF4F44FB882780F9808353
S11300D011822F5F3F4F2436310561F0C901880F2B
S11300E0991FFC01E050FF4F40815181452B09F7D6
S11100F02B9AE0CF20E030E0F1CFF894FFCF60
S9030000FC
