:100000000C9434000C943E000C943E000C943E0082
:100010000C943E000C943E000C943E000C943E0068
:100020000C943E000C943E000C943E000C943E0058
:100030000C943E000C943E000C943E000C943E0048
:100040000C943E000C943E000C943E000C943E0038
:100050000C943E000C943E000C943E000C943E0028
:100060000C943E000C943E0011241FBECFEFD8E04C
:10007000DEBFCDBF0E9440000C946A000C940000CB
:100080008091C100877E8093C10085B1876085B96A
:100090008FEF8AB980E020E033B1EFE3FCE93197DC
:1000A000F1F700C0000093B1932B90959770809565
:1000B0008923382F317031502323382F36953695C8
:1000C00086958170381B230F822F869582278BB9E6
:0800D000892FE2CFF894FFCF65
:00000001FF
