:1000000010C01FC01EC01DC01CC01BC01AC019C01C
:1000100018C025C016C015C014C013C012C011C02E
:1000200010C011241FBECFE5D2E0DEBFCDBF20E05F
:10003000A0E6B0E001C01D92A53CB207E1F73ED0BA
:1000400054C0DECFDF9ABA9A089582E080BF83E081
:1000500083BF8BE986BF89B7826089BF08951F92ED
:100060000F920FB60F9211248F939F93EF93FF93EC
:10007000E0916000F0E0EF59FF4F8081880F880F1A
:1000800088BB89B390916000E92FF0E0EF59FF4FF2
:100090008095881F8827881F80839F5F943659F03A
:1000A00090936000FF91EF919F918F910F900FBE01
:1000B0000F901F90189510926000F4CFDF9ABA9AB3
:1000C00082E080BF83E083BF8BE986BF89B782600F
:1000D00089BF85B7877E85BF789485B7806285BFE5
:0E00E000889585B78F7D85BFF8CFF894FFCF48
:00000001FF
