:100000000C9434000C9451000C9451000C94510049
:100010000C9451000C9451000C9451000C9451001C
:100020000C9451000C9451000C9451000C9451000C
:100030000C9451000C9451000C9451000C945100FC
:100040000C9451000C9451000C948B000C946200A1
:100050000C9451000C9451000C9451000C945100DC
:100060000C9451000C94510011241FBECFEFD8E026
:10007000DEBFCDBF11E0A0E0B1E0E8E0F9E002C0F2
:1000800005900D92A231B107D9F723E0A2E1B1E0CA
:1000900001C01D92A631B207E1F70E9419010C942C
:1000A00082040C94000087E690E09093C500809352
:1000B000C4001092C00088E98093C10086E080935C
:1000C000C20008951F920F920FB60F9211248F93C2
:1000D0009F93EF93FF93E091120181E08E0F809345
:1000E0001201F0E0EA5EFE4F80818093C60090919D
:1000F000130180911201981305C08091C1008F7D7A
:100100008093C100FF91EF919F918F910F900FBE4F
:100110000F901F9018951F920F920FB60F921124F7
:100120002F933F938F939F93EF93FF93CF93DF93FF
:100130001F92CDB7DEB7809115012091140190E098
:10014000019630E082179307D1F0E091150181E02C
:100150008E0F80931501F0E08091C600EA5EFD4F9E
:1001600080830F90DF91CF91FF91EF919F918F91BD
:100170003F912F910F900FBE0F901F901895809177
:10018000C60089838981EDCF20911301409112012E
:1001900030E02F5F3F4F50E024173507A9F3F89464
:1001A000E091130191E09E0F90931301F0E0EA5E5D
:1001B000FE4F80838091C10080628093C10078945B
:1001C0000895DC019C91992301F11196209113016E
:1001D0004091120130E02F5F3F4F50E02417350768
:1001E000A9F3F894E091130181E08E0F809313013D
:1001F000F0E0EA5EFE4F90839091C1009062909390
:10020000C10078949D919111E1CF089590911501CD
:10021000809114019817D1F3F894E091140181E0D2
:100220008E0F80931401F0E0EA5EFD4F8081789498
:100230000895CF93DF93CDB7DEB7C456D1090FB67B
:10024000F894DEBF0FBECDBF87E690E09093C50067
:100250008093C4001092C00088E98093C10086E0BA
:100260008093C200789490911501809114019817A1
:10027000D1F3F894E091140181E08E0F8093140182
:10028000F0E0EA5EFD4F00817894002E000C110B27
:10029000CE0101966C0180E0E82E81E0F82EF89402
:1002A0003091130120911201909115018091140158
:1002B0001F930F931F923F931F922F931F929F9311
:1002C0001F928F93FF92EF92DF92CF920E9498013C
:1002D000789449810FB6F894DEBF0FBECDBF44239A
:1002E00001F1DE011296809113012091120190E03C
:1002F000019630E082179307B1F3F894E09113016F
:1003000081E08E0F80931301F0E0EA5EFE4F4083A0
:100310008091C10080628093C10078944D91411119
:10032000E2CF8FE39CE90197F1F700C00000B7CF5F
:10033000AEE0B0E0EEE9F1E00C9459040D891E89BD
:1003400086E08C831A8309838FEF9FE79E838D83DA
:10035000AE01475E5F4F6F89788DCE0101960E9496
:10036000BA01EF81F885E00FF11F10822E96E4E0CC
:100370000C947504ABE0B0E0E0ECF1E00C944B04BD
:100380006C017B018A01FC0117821682838181FF47
:10039000CCC1CE0101963C01F6019381F70193FD9A
:1003A000859193FF81917F01882309F4BAC1853239
:1003B00039F493FD859193FF81917F01853229F472
:1003C000B60190E00E94B103E7CF912C212C312C93
:1003D000FFE1F315D8F08B3279F038F4803279F000
:1003E0008332A1F4232D20611DC08D3261F0803352
:1003F00069F4232D216016C0832D8260382EE32DF1
:10040000E4603E2E2AC0F32DF8601DC037FC2DC0DD
:1004100020ED280F2A3040F08E32B9F436FC81C12D
:10042000232D2064322E19C036FE06C08AE0989E25
:10043000200D1124922E11C0EAE02E9E200D1124D1
:10044000222EF32DF0623F2E08C08C3621F4832D2E
:100450008068382E02C0883641F4F70193FD8591FB
:1004600093FF81917F018111B3CF982F9F7D955488
:10047000933028F40C5F1F4F9FE399830DC08336A0
:1004800031F0833771F0833509F059C021C0F8018C
:10049000808189830E5F1F4F88248394912C5301A0
:1004A00013C02801F2E04F0E511CF801A080B1806A
:1004B00036FE03C0692D70E002C06FEF7FEFC5010B
:1004C0000E94A6034C018201F32DFF773F2E16C038
:1004D000280122E0420E511CF801A080B18036FEB6
:1004E00003C0692D70E002C06FEF7FEFC5010E946D
:1004F0009B034C01F32DF0683F2E820133FC1BC09F
:10050000822D90E088169906B0F4B60180E290E062
:100510000E94B1032A94F4CFF50137FC859137FE90
:1005200081915F01B60190E00E94B10321102A94ED
:1005300021E0821A91088114910471F7E8C0843691
:1005400011F0893641F5F80137FE07C060817181ED
:10055000828193810C5F1F4F08C060817181072EDB
:10056000000C880B990B0E5F1F4FF32DFF763F2E6B
:1005700097FF09C090958095709561957F4F8F4F3B
:100580009F4FF0683F2E2AE030E0A3010E94ED0368
:10059000882E861845C0853731F4232D2F7EB22E44
:1005A0002AE030E025C0932D997FB92E8F36C1F017
:1005B00018F4883579F0B5C0803719F0883721F004
:1005C000B0C0E92FE061BE2EB4FE0DC0FB2DF4607B
:1005D000BF2E09C034FE0AC0292F2660B22E06C0E5
:1005E00028E030E005C020E130E002C020E132E048
:1005F000F801B7FE07C060817181828193810C5F31
:100600001F4F06C06081718180E090E00E5F1F4F38
:10061000A3010E94ED03882E8618FB2DFF773F2E45
:1006200036FE0DC0232D2E7FA22E891458F434FEE1
:100630000BC032FC09C0832D8E7EA82E05C0B82CBD
:10064000A32C03C0B82C01C0B92CA4FE0FC0FE011E
:10065000E80DF11D8081803321F49A2D997EA92E19
:1006600009C0A2FE06C0B394B39404C08A2D867854
:1006700009F0B394A3FC11C0A0FE06C0B21488F424
:10068000280C922C9B180EC0B21460F4B60180E2C4
:1006900090E00E94B103B394F7CFB21418F42B1872
:1006A00002C0982C212CA4FE10C0B60180E390E07B
:1006B0000E94B103A2FE17C0A1FC03C088E790E02E
:1006C00002C088E590E0B6010CC08A2D867859F00A
:1006D000A1FE02C08BE201C080E2A7FC8DE2B60160
:1006E00090E00E94B103891438F4B60180E390E0F1
:1006F0000E94B1039A94F7CF8A94F301E80DF11D9B
:100700008081B60190E00E94B1038110F5CF2220D4
:1007100009F442CEB60180E290E00E94B1032A942F
:10072000F6CFF6018681978102C08FEF9FEF2B965F
:10073000E2E10C946704FC010590615070400110E7
:10074000D8F7809590958E0F9F1F0895FC016150FA
:10075000704001900110D8F7809590958E0F9F1FE3
:1007600008950F931F93CF93DF93FB01238121FD06
:1007700003C08FEF9FEF2CC022FF16C04681578128
:10078000248135814217530744F4A081B1819D0132
:100790002F5F3F4F318320838C93268137812F5FDA
:1007A0003F4F3783268314C08B01EC01FB0100848B
:1007B000F185E02D0995892BE1F6D80116968D91EA
:1007C0009C911797019617969C938E931697CE013E
:1007D000DF91CF911F910F910895FA01AA27283038
:1007E00051F1203181F1E8946F936E7F6E5F7F4FFE
:1007F0008F4F9F4FAF4FB1E03ED0B4E03CD0670F7A
:10080000781F891F9A1FA11D680F791F8A1F911DCC
:10081000A11D6A0F711D811D911DA11D20D009F41C
:1008200068943F912AE0269F11243019305D31935E
:10083000DEF6CF010895462F4770405D4193B3E047
:100840000FD0C9F7F6CF462F4F70405D4A3318F0EE
:10085000495D31FD4052419302D0A9F7EACFB4E09F
:10086000A6959795879577956795BA95C9F7009757
:100870006105710508959B01AC010A2E06945795F8
:10088000479537952795BA95C9F7620F731F841F4F
:10089000951FA01D08952F923F924F925F926F92E5
:1008A0007F928F929F92AF92BF92CF92DF92EF9200
:1008B000FF920F931F93CF93DF93CDB7DEB7CA1B81
:1008C000DB0B0FB6F894DEBF0FBECDBF09942A88AC
:1008D000398848885F846E847D848C849B84AA8454
:1008E000B984C884DF80EE80FD800C811B81AA81E1
:1008F000B981CE0FD11D0FB6F894DEBF0FBECDBFAC
:08090000ED010895F894FFCF0A
:1009080025642025642025642025642025630D0A9C
:020918000000DD
:00000001FF
