:100000000C9434000C9449000C9449000C94490061
:100010000C9449000C9449000C9449000C9449003C
:100020000C9449000C9449000C9449000C9449002C
:100030000C9449000C9449000C9449000C9449001C
:100040000C9449000C9449000C9449000C9449000C
:100050000C9449000C9449000C9449000C944900FC
:100060000C9449000C94490011241FBECFEFD8E036
:10007000DEBFCDBF11E0A0E0B1E0E2E2F1E002C0FE
:1000800005900D92AA30B107D9F70E945E000C943A
:100090008F000C94000084B18E6284B92A9829984C
:1000A0008CB582658CBD1DBC08958EBD0DB407FE58
:1000B000FDCF8DB580688DBD8EB5089584B18E62FB
:1000C00084B92A9829988CB582658CBD1DBC20EC1A
:1000D00080E090E020952EBD0DB407FEFDCF2DB53C
:1000E00020682DBD2EB5299A25E02A95F1F700004C
:1000F000299801968A30910571F0FC01E050FF4F7C
:1001000020813FEF43ED50E3315040405040E1F754
:1001100000C00000DFCF20EC80E090E0F2CFF89448
:02012000FFCF0F
:0A012200C0F9A4B0999282F8809011
:00000001FF
