S00D00007461736B332E7372656331
S11300000C9434000C9451000C9451000C94510045
S11300100C9451000C9451000C9451000C94510018
S11300200C9451000C9451000C9451000C94510008
S11300300C9451000C9451000C9451000C945100F8
S11300400C9451000C9451000C9451000C945100E8
S11300500C9451000C9451000C9451000C945100D8
S11300600C9451000C94510011241FBECFEFD8E022
S1130070DEBFCDBF11E0A0E0B1E0E2E7F1E002C0F5
S113008005900D92A432B107D9F721E0A4E2B1E0C2
S113009001C01D92A833B207E1F70E9453000C94EB
S11300A0B7000C9400008091C100877E8093C1004A
S11300B0509A519A529A539A549A559A569A579AD0
S11300C084E1E4E2F1E0DF011D928A95E9F7A0E022
S11300D0B1E028E331E0C1E0D0E02EC0D183C08399
S11300E073E060E081E090E041FD04C070836183CF
S11300F0872F962F42FD03C084609183808343FD44
S113010003C088609183808344FD03C08061918330
S1130110808345FD03C080629183808346FD03C0D4
S113012080649183808347FD03C0806891838083CA
S113013032962E173F0749F04D915D9140FFCECF87
S113014072E060E080E090E0CFCFE4E2F1E0808113
S113015032968BB9BFEF43ED80E3B150404080400D
S1130160E1F700C000002E173F0789F7EECFF8949F
S1050170FFCFBB
S11301723F0006005B004F0066006D007D00070033
S11301827F006F000000010002000300040005006C
S10701920600070058
S9030000FC
