:100000000C943A000C9457000C9457000C94570031
:100010000C9457000C9457000C9457000C94570004
:100020000C9457000C9457000C9457000C945700F4
:100030000C9457000C9457000C9457000C945700E4
:100040000C9457000C9457000C9457000C945700D4
:100050000C9457000C9457000C9457000C945700C4
:100060000C9457000C9457006364696E6F7073753D
:1000700078585B0011241FBECFEFD8E0DEBFCDBFA4
:1000800011E0A0E0B1E0E2E6F9E002C005900D92D7
:10009000A035B107D9F721E0A0E5B1E001C01D927C
:1000A000A436B207E1F70E9479000C94AF040C94D7
:1000B00000009091C00095FFFCCF8093C60080E0C7
:1000C00090E008958091C00087FFFCCF8091C6002A
:1000D00090E0089587E690E09093C5008093C40077
:1000E0001092C00088E18093C10086E08093C20036
:1000F0000895CF93DF93CDB7DEB7C054D1090FB6C3
:10010000F894DEBF0FBECDBF87E690E09093C500A8
:100110008093C4001092C00088E18093C10086E003
:100120008093C20080E591E029E530E030935901E9
:100130002093580122E630E030935B0120935A016E
:1001400023E02093530110925D0110925C01909383
:1001500063018093620190936101809360019093A9
:100160005F0180935E018AE191E00E941701259A68
:10017000AE014F5F5F4F7A010AE411E0FF92EF9208
:100180001F930F930E944701E9810F900F900F90EA
:100190000F90EE23C1F1DE0112960E2E000CFF0B24
:1001A000E154FF4F808190E028E030E040E050E0F3
:1001B0001DC02D9A80FF31C04FEF51EE64E04150D9
:1001C00050406040E1F700C000002D984FEF55EA25
:1001D0006EE0415050406040E1F700C0000041E057
:1001E00050E0959587952150310951F0452B09F73D
:1001F000AC01417055279595879521503109B1F78C
:10020000ED91E111CACF5FEF6DE282E251506040A3
:100210008040E1F700C00000B1CF4FEF55EA6EE03B
:10022000415050406040E1F700C00000CECF0F9336
:100230001F93CF93DF93E0916001F09161012381DF
:1002400021FF1BC08C01D0E0C0E0F80181918F013B
:100250006091600170916101DB011896ED91FC9154
:100260001997882331F00995892B79F3DFEFCFEFC8
:10027000ECCF8AE00995892B19F08FEF9FEF02C030
:100280008D2F9C2FDF91CF911F910F910895A0E0AA
:10029000B0E0EDE4F1E00C948804AE014B5F5F4FF9
:1002A000FA0161917191AF0180915E0190915F01BE
:1002B0000E94F902E2E00C94A40420FD09C0FC01B4
:1002C00023FD05C022FF02C07383628351834083F4
:1002D000089544FD17C046FD17C0AB01BC01DA010B
:1002E000FB01AA0FBB1FEE1FFF1F1094D1F74A0F8F
:1002F0005B1F6E1F7F1FCB01BA01660F771F881F20
:10030000991F09C033E001C034E0660F771F881FD2
:10031000991F3150D1F7620F711D811D911D0895F4
:100320000F931F93CF93DF938C01C8010E941E048B
:10033000EC0197FD08C00E940A04892BB1F7B801AF
:10034000CE010E945C04CE01DF91CF911F910F91ED
:1003500008958F929F92AF92BF92EF92FF920F9368
:100360001F93CF93DF938C01D62F7A01B22E0E9478
:100370001E049C0133272B32310531F02D3231051B
:1003800061F48B2D8068B82ED15011F480E068C0E4
:10039000C8010E941E0497FDF9CFCB2DCD7F2B2DD8
:1003A000207309F58033F9F4AA24AA94AD0E09F458
:1003B00043C0C8010E941E0497FD3EC09C012F7DD2
:1003C00033272835310549F4C264D250A9F1C80158
:1003D0000E941E0497FF07C02FC0B6FE02C0C26075
:1003E00001C0C261DA2D812C912C540120ED280F1F
:1003F000283080F0C4FF04C0B8010E945C0419C01A
:100400002A3040F0C6FFF8CF2F7D3FEE320F363056
:1004100098F727504C2FC501B4010E9469014B0188
:100420005C01C260D15059F0C8010E941E0497FFC0
:10043000DDCFC1FD04C0AACF812C912C5401C7FF90
:1004400008C0B094A09490948094811C911CA11C2D
:10045000B11C2C2FB501A401C7010E945D0181E0F0
:10046000DF91CF911F910F91FF90EF90BF90AF90D0
:100470009F908F900895A0E2B0E0E1E4F2E00C9448
:100480007B045C01962E7A01F9018E010F5F1F4FEC
:10049000680180E2D8011D928A95E9F7D50113968B
:1004A0008C9080E090E0612C712C30E061E070E095
:1004B00083FC259183FE21918F01522E211103C0CF
:1004C00080E090E092C02E3511F4009751F1432F57
:1004D00050E0481759073CF42D3559F12D3219F4E5
:1004E000772009F103C0772009F46AC0452D4695AD
:1004F00046954695D601A40FB11D452D47708B0139
:1005000002C0000F111F4A95E2F7A8015C91452B2C
:100510004C93651459F0561410F45394E7CF5A9441
:10052000E5CF31E004C07724739401C0712C0196AB
:10053000BFCF772019F08E8180628E83311103C086
:100540008824839417C0F6019E012F5D3F4F808160
:10055000809581932E173F07D1F7F2CFE114F10474
:1005600029F0D7018C93F70131967F019A94812C61
:100570009920F9F0C5010E941E0497FD18C0FC01E6
:10058000FF2723E0F595E7952A95E1F7EC0DFD1D92
:10059000208130E0AC014770552702C03595279582
:1005A0004A95E2F720FDDACFB5010E945C04811084
:1005B00087CFE114F10411F0D7011C92C80115C0D6
:1005C000422F469546954695D601A40FB11D422F60
:1005D00047708B0102C0000F111F4A95E2F7A80176
:1005E0005C91452B4C93622EA2CFA096EFE00C9429
:1005F0009704A0E0B0E0EFEFF2E00C947B046C0114
:10060000EB015A01FC0117821682512CF601E3809E
:10061000FE01E3FC8591E3FE8191182FEF01882311
:1006200009F4EEC090E00E940A04892B21F0C60173
:100630000E949001EBCF153241F4FE01E3FC1591CD
:10064000E3FE1191EF01153281F4C6010E941E04F0
:1006500097FDD4C0412F50E09C0133272417350764
:10066000A9F2B6010E945C04CBC01A3239F4E3FC53
:100670001591E3FE1191EF0101E001C000E0F12CC2
:1006800020ED210F2A3080F402606F2D70E080E0B1
:1006900090E040E20E946901F62EFE01E3FC159114
:1006A000E3FE1191EF01ECCF01FF03C0F11003C095
:1006B000A7C0FF24FA94183619F01C3651F010C068
:1006C000FE01E3FC1591E3FE1191EF01183641F4B0
:1006D00008600460FE01E3FC1591E3FE1191EF0157
:1006E000112309F48DC0612F70E088E690E00E942C
:1006F0001304892B09F484C000FD07C0F501808034
:100700009180C50102965C0102C0812C912C1E369D
:1007100051F4F6014681578160E070E0202FC4015A
:100720000E945D0173CF1336A9F401FD02C0FF24BE
:10073000F394C6010E941E0497FD60C081149104C9
:1007400029F0F4018083C40101964C01FA94F11060
:10075000F0CF50C01B3559F49E01A4016F2DC60186
:100760000E943B02EC01892B09F044C03EC0C60147
:100770000E94900197FD42C01F3661F128F41436A3
:1007800039F1193651F128C0133771F0153701F1DD
:1007900023C08114910429F0F4016082C401019600
:1007A0004C01FA94FF2071F0C6010E941E043C0126
:1007B00097FD08C00E940A04892B59F3B601C301B2
:1007C0000E945C0481149104A9F0F401108212C00B
:1007D000006203C0006101C00064202FA4016F2DDE
:1007E000C6010E94A901811105C0F60183818073B1
:1007F00029F406C000FD0ACF539408CF552019F004
:10080000852D90E002C08FEF9FEFCDB7DEB7EFE010
:100810000C94970491110C947504803219F089504E
:100820008550C8F70895FC010590061621F00020B8
:10083000D9F7C00108953197CF010895CF93DF9381
:10084000EC012B8120FF33C026FF0AC02F7B2B83B6
:100850008E819F8101969F838E838A8190E029C03B
:1008600022FF0FC0E881F9818081082E000C990BCE
:10087000009719F420622B831AC03196F983E8831C
:100880000EC0EA85FB85099597FF09C02B8101966B
:1008900011F080E201C080E1822B8B8308C02E81A1
:1008A0003F812F5F3F4F3F832E83992702C08FEFF9
:1008B0009FEFDF91CF910895FB01238120FF12C0AC
:1008C00026FD10C08F3F3FEF930761F082832F7D9D
:1008D0002064238326813781215031093783268381
:1008E000992708958FEF9FEF0895992788270895F6
:1008F0002F923F924F925F926F927F928F929F9230
:10090000AF92BF92CF92DF92EF92FF920F931F931D
:10091000CF93DF93CDB7DEB7CA1BDB0B0FB6F894CE
:10092000DEBF0FBECDBF09942A88398848885F840E
:100930006E847D848C849B84AA84B984C884DF807F
:10094000EE80FD800C811B81AA81B981CE0FD11D63
:100950000FB6F894DEBF0FBECDBFED010895F89439
:02096000FFCFC7
:10096200A01858304048700820E8B028E060F068CD
:10097200B85010C09088D098D838577069737A20D0
:10098200736C6F77612C206B746F7265206D616D73
:100992002070727A65746C756D61637A7963206E0A
:1009A20061206D6F727361210D0025363373000073
:00000001FF
