S00D00007461736B322E7372656332
S11300000C9434000C9449000C9449000C9449005D
S11300100C9449000C9449000C9449000C94490038
S11300200C9449000C9449000C9449000C94490028
S11300300C9449000C9449000C9449000C94490018
S11300400C9449000C9449000C9449000C94490008
S11300500C9449000C9449000C9449000C944900F8
S11300600C9449000C94490011241FBECFEFD8E032
S1130070DEBFCDBF11E0A0E0B1E0EAE7F1E002C0ED
S113008005900D92A031B107D9F70E944B000C9452
S1130090BB000C9400008091C100877E8093C10056
S11300A0509A519A529A539A549A559A569A579AE0
S11300B060E071E081E090E0A0E1B1E0E0E0F1E037
S11300C04BB1EF019C01008002C0220F331F0A9440
S11300D0E2F7242B2BB92FEF39EF40E021503040C9
S11300E04040E1F700C000003BB13296AC0108800B
S11300F002C0440F551F0A94E2F7242F20952323AE
S11301002BB92FEF39EF40E0215030404040E1F768
S113011000C0000021E0E031F20791F64BB11297E4
S11301209C010C9002C0220F331F0A94E2F7242B87
S11301302BB93FEF49EF20E0315040402040E1F738
S113014000C000003BB1AC010C9002C0440F551F2D
S11301500A94E2F7242F209523232BB93FEF49EF8C
S113016020E0315040402040E1F700C000006A1711
S10D01707B07A1F6A1CFF894FFCF9E
S113017A0000010002000300040005000600070055
S9030000FC
