:100000000C9434000C94AA000C9451000C945100F0
:100010000C9451000C9451000C9451000C9451001C
:100020000C9451000C9451000C9451000C9451000C
:100030000C9451000C9451000C9451000C945100FC
:100040000C9451000C9451000C9451000C945100EC
:100050000C9451000C9482000C9451000C945100AB
:100060000C9451000C94510011241FBECFEFD8E026
:10007000DEBFCDBF11E0A0E0B1E0E0EFF8E002C0EC
:1000800005900D92A831B107D9F721E0A8E1B1E0C0
:1000900001C01D92AC31B207E1F70E94BF000C9481
:1000A00076040C94000087E690E09093C50080935E
:1000B000C4001092C00088E18093C10086E0809364
:1000C000C20008959091C00095FFFCCF8093C600B8
:1000D0000895FC012081222351F031969091C000B7
:1000E00095FFFCCF2093C60021912111F7CF0895F1
:1000F00080E480937C0081E080937E008FE8809391
:100100007A0008951F920F920FB60F9211248F93C9
:100110009F93AF93BF938091780090917900A0E076
:10012000B0E08093180190931901A0931A01B09345
:100130001B01BF91AF919F918F910F900FBE0F90B8
:100140001F9018955A9AE9E6F0E0808182608083DA
:10015000E89A08951F920F920FB60F9211248F9371
:10016000EF93FF93EAE7F0E0808180648083FF9162
:10017000EF918F910F900FBE0F901F901895CF9316
:10018000DF93CDB7DEB7C456D1090FB6F894DEBF02
:100190000FBECDBF87E690E09093C5008093C4006A
:1001A0001092C00088E18093C10086E08093C20075
:1001B00080E480937C0081E080937E008FE88093D0
:1001C0007A005A9A80916900826080936900E89A67
:1001D00078949E012F5F3F4F790100E011E0F89481
:1001E0008091180190911901A0911A01B0911B0101
:1001F000892B8A2B8B2B09F446C020911801309152
:10020000190140911A0150911B01809018019090A2
:100210001901A0901A01B0901B01A0EFB8ED0E9447
:100220006D016051774E83469F4FA50194010E9456
:100230004801C9019A0178943F932F939F938F931C
:100240001F930F93FF92EF920E948C0199810FB63A
:10025000F894DEBF0FBECDBF992359F0FE01329650
:100260008091C00085FFFCCF9093C60091919111C1
:10027000F7CF3FEF83ED90E3315080409040E1F7BE
:1002800000C00000ACCF80E090E020E030E0D3CFB1
:10029000A1E21A2EAA1BBB1BFD010DC0AA1FBB1F8A
:1002A000EE1FFF1FA217B307E407F50720F0A21BFC
:1002B000B30BE40BF50B661F771F881F991F1A9469
:1002C00069F760957095809590959B01AC01BD0193
:1002D000CF010895B7FF0C9472010E947201821B36
:1002E000930B08950E947D01A59F900DB49F900DE2
:1002F000A49F800D911D11240895A29FB001B39F6A
:10030000C001A39F700D811D1124911DB29F700D1E
:10031000811D1124911D0895AEE0B0E0E2E9F1E005
:100320000C944D040D891E8986E08C831A83098301
:100330008FEF9FE79E838D83AE01475E5F4F6F898E
:10034000788DCE0101960E94AE01EF81F885E00F15
:10035000F11F10822E96E4E00C946904ABE0B0E04B
:10036000E4EBF1E00C943F046C017B018A01FC0199
:1003700017821682838181FFCCC1CE0101963C0198
:10038000F6019381F70193FD859193FF81917F01A0
:10039000882309F4BAC1853239F493FD859193FF1E
:1003A00081917F01853229F4B60190E00E94A50376
:1003B000E7CF912C212C312CFFE1F315D8F08B32B3
:1003C00079F038F4803279F08332A1F4232D206162
:1003D0001DC08D3261F0803369F4232D216016C079
:1003E000832D8260382EE32DE4603E2E2AC0F32D4B
:1003F000F8601DC037FC2DC020ED280F2A3040F0DA
:100400008E32B9F436FC81C1232D2064322E19C0FE
:1004100036FE06C08AE0989E200D1124922E11C04F
:10042000EAE02E9E200D1124222EF32DF0623F2EA5
:1004300008C08C3621F4832D8068382E02C088369F
:1004400041F4F70193FD859193FF81917F01811123
:10045000B3CF982F9F7D9554933028F40C5F1F4F96
:100460009FE399830DC0833631F0833771F0833574
:1004700009F059C021C0F801808189830E5F1F4FA8
:1004800088248394912C530113C02801F2E04F0E6D
:10049000511CF801A080B18036FE03C0692D70E0C8
:1004A00002C06FEF7FEFC5010E949A034C018201E9
:1004B000F32DFF773F2E16C0280122E0420E511C7B
:1004C000F801A080B18036FE03C0692D70E002C043
:1004D0006FEF7FEFC5010E948F034C01F32DF06891
:1004E0003F2E820133FC1BC0822D90E088169906B6
:1004F000B0F4B60180E290E00E94A5032A94F4CF04
:10050000F50137FC859137FE81915F01B60190E0DE
:100510000E94A50321102A9421E0821A91088114D7
:10052000910471F7E8C0843611F0893641F5F8017D
:1005300037FE07C060817181828193810C5F1F4FFC
:1005400008C060817181072E000C880B990B0E5F2B
:100550001F4FF32DFF763F2E97FF09C09095809592
:10056000709561957F4F8F4F9F4FF0683F2E2AE027
:1005700030E0A3010E94E103882E861845C085372C
:1005800031F4232D2F7EB22E2AE030E025C0932DAA
:10059000997FB92E8F36C1F018F4883579F0B5C03F
:1005A000803719F0883721F0B0C0E92FE061BE2E06
:1005B000B4FE0DC0FB2DF460BF2E09C034FE0AC08E
:1005C000292F2660B22E06C028E030E005C020E1C9
:1005D00030E002C020E132E0F801B7FE07C06081E0
:1005E0007181828193810C5F1F4F06C06081718190
:1005F00080E090E00E5F1F4FA3010E94E103882E70
:100600008618FB2DFF773F2E36FE0DC0232D2E7F43
:10061000A22E891458F434FE0BC032FC09C0832D7D
:100620008E7EA82E05C0B82CA32C03C0B82C01C008
:10063000B92CA4FE0FC0FE01E80DF11D80818033AE
:1006400021F49A2D997EA92E09C0A2FE06C0B3946A
:10065000B39404C08A2D867809F0B394A3FC11C02A
:10066000A0FE06C0B21488F4280C922C9B180EC071
:10067000B21460F4B60180E290E00E94A503B39446
:10068000F7CFB21418F42B1802C0982C212CA4FE1A
:1006900010C0B60180E390E00E94A503A2FE17C03F
:1006A000A1FC03C088E790E002C088E590E0B601B5
:1006B0000CC08A2D867859F0A1FE02C08BE201C0E1
:1006C00080E2A7FC8DE2B60190E00E94A5038914A8
:1006D00038F4B60180E390E00E94A5039A94F7CF26
:1006E0008A94F301E80DF11D8081B60190E00E942B
:1006F000A5038110F5CF222009F442CEB60180E295
:1007000090E00E94A5032A94F6CFF6018681978196
:1007100002C08FEF9FEF2B96E2E10C945B04FC018B
:100720000590615070400110D8F7809590958E0F1C
:100730009F1F0895FC016150704001900110D8F78F
:10074000809590958E0F9F1F08950F931F93CF93C1
:10075000DF93FB01238121FD03C08FEF9FEF2CC0AE
:1007600022FF16C0468157812481358142175307E5
:1007700044F4A081B1819D012F5F3F4F31832083DD
:100780008C93268137812F5F3F4F3783268314C098
:100790008B01EC01FB010084F185E02D0995892B8B
:1007A000E1F6D80116968D919C91179701961796B0
:1007B0009C938E931697CE01DF91CF911F910F914D
:1007C0000895FA01AA27283051F1203181F1E894E7
:1007D0006F936E7F6E5F7F4F8F4F9F4FAF4FB1E034
:1007E0003ED0B4E03CD0670F781F891F9A1FA11D2F
:1007F000680F791F8A1F911DA11D6A0F711D811D30
:10080000911DA11D20D009F468943F912AE0269FF4
:1008100011243019305D3193DEF6CF010895462F53
:100820004770405D4193B3E00FD0C9F7F6CF462F34
:100830004F70405D4A3318F0495D31FD405241939D
:1008400002D0A9F7EACFB4E0A6959795879577955A
:100850006795BA95C9F700976105710508959B01E1
:10086000AC010A2E06945795479537952795BA956A
:10087000C9F7620F731F841F951FA01D08952F9243
:100880003F924F925F926F927F928F929F92AF9220
:10089000BF92CF92DF92EF92FF920F931F93CF936D
:1008A000DF93CDB7DEB7CA1BDB0B0FB6F894DEBF04
:1008B0000FBECDBF09942A88398848885F846E842A
:1008C0007D848C849B84AA84B984C884DF80EE8074
:1008D000FD800C811B81AA81B981CE0FD11D0FB67D
:1008E000F894DEBF0FBECDBFED010895F894FFCFA1
:1008F0004C617374207265636F72643A20256C7565
:08090000206F686D0D0A000074
:00000001FF
