S01200007461736B325F333238502E73726563E1
S11300000C9434000C943E000C943E000C943E007E
S11300100C943E000C943E000C943E000C943E0064
S11300200C943E000C943E000C943E000C943E0054
S11300300C943E000C943E000C943E000C943E0044
S11300400C943E000C943E000C943E000C943E0034
S11300500C943E000C943E000C943E000C943E0024
S11300600C943E000C943E0011241FBECFEFD8E048
S1130070DEBFCDBF0E9445000C9463000C940000C9
S1130080249A2A9A80E48CBD0895549A5A9A249A00
S11300902A9A80E48CBD89B182FB992790F981E08A
S11300A089278EBD91E00DB407FEFDCF8EB5882360
S11300B041F05C9A89B182FB882780F989278EBD3B
S10D00C0F2CF5C98F7CFF894FFCF5D
S9030000FC
